{
  "_format": "hh-sol-artifact-1",
  "contractName": "DutchAuction",
  "sourceName": "contracts/DutchAuction.sol",
  "abi": [
    {
      "inputs": [
        {
          "internalType": "uint256",
          "name": "_reservePrice",
          "type": "uint256"
        },
        {
          "internalType": "address",
          "name": "_judgeAddress",
          "type": "address"
        },
        {
          "internalType": "uint256",
          "name": "_numBlocksAuctionOpen",
          "type": "uint256"
        },
        {
          "internalType": "uint256",
          "name": "_offerPriceDecrement",
          "type": "uint256"
        }
      ],
      "stateMutability": "nonpayable",
      "type": "constructor"
    },
    {
      "inputs": [],
      "name": "bid",
      "outputs": [],
      "stateMutability": "payable",
      "type": "function"
    },
    {
      "inputs": [],
      "name": "finalize",
      "outputs": [],
      "stateMutability": "nonpayable",
      "type": "function"
    },
    {
      "inputs": [],
      "name": "nop",
      "outputs": [
        {
          "internalType": "bool",
          "name": "",
          "type": "bool"
        }
      ],
      "stateMutability": "pure",
      "type": "function"
    },
    {
      "inputs": [
        {
          "internalType": "uint256",
          "name": "refundAmount",
          "type": "uint256"
        }
      ],
      "name": "refund",
      "outputs": [],
      "stateMutability": "nonpayable",
      "type": "function"
    }
  ],
  "bytecode": "0x608060405234801561001057600080fd5b50604051610a18380380610a1883398181016040528101906100329190610102565b8360018190555082600260006101000a81548173ffffffffffffffffffffffffffffffffffffffff021916908373ffffffffffffffffffffffffffffffffffffffff1602179055508160038190555080600481905550336000806101000a81548173ffffffffffffffffffffffffffffffffffffffff021916908373ffffffffffffffffffffffffffffffffffffffff16021790555043600581905550505050506101cf565b6000815190506100e7816101a1565b92915050565b6000815190506100fc816101b8565b92915050565b6000806000806080858703121561011857600080fd5b6000610126878288016100ed565b9450506020610137878288016100d8565b9350506040610148878288016100ed565b9250506060610159878288016100ed565b91505092959194509250565b600061017082610177565b9050919050565b600073ffffffffffffffffffffffffffffffffffffffff82169050919050565b6000819050919050565b6101aa81610165565b81146101b557600080fd5b50565b6101c181610197565b81146101cc57600080fd5b50565b61083a806101de6000396000f3fe60806040526004361061003f5760003560e01c80631998aeef14610044578063278ecde11461004e5780632e9c58bb146100775780634bb278f3146100a2575b600080fd5b61004c6100b9565b005b34801561005a57600080fd5b5061007560048036038101906100709190610671565b610273565b005b34801561008357600080fd5b5061008c6103ba565b60405161009991906106a9565b60405180910390f35b3480156100ae57600080fd5b506100b76103c3565b005b600860009054906101000a900460ff16156100d357600080fd5b6003546005546100e391906106c4565b43106100ee57600080fd5b436003546005546100ff91906106c4565b6101099190610774565b600454610116919061071a565b60015461012391906106c4565b34101561012f57600080fd5b6001600860006101000a81548160ff021916908315150217905550600073ffffffffffffffffffffffffffffffffffffffff16600260009054906101000a900473ffffffffffffffffffffffffffffffffffffffff1673ffffffffffffffffffffffffffffffffffffffff16141561020d5760008054906101000a900473ffffffffffffffffffffffffffffffffffffffff1673ffffffffffffffffffffffffffffffffffffffff166108fc349081150290604051600060405180830381858888f19350505050158015610207573d6000803e3d6000fd5b50610271565b33600660006101000a81548173ffffffffffffffffffffffffffffffffffffffff021916908373ffffffffffffffffffffffffffffffffffffffff160217905550346007819055506001600860046101000a81548160ff0219169083151502179055505b565b600860009054906101000a900460ff16801561029c5750600860019054906101000a900460ff16155b80156102b55750600860029054906101000a900460ff16155b6102be57600080fd5b600260009054906101000a900473ffffffffffffffffffffffffffffffffffffffff1673ffffffffffffffffffffffffffffffffffffffff163373ffffffffffffffffffffffffffffffffffffffff161461031857600080fd5b6001600860026101000a81548160ff0219169083151502179055506001600860016101000a81548160ff021916908315150217905550600660009054906101000a900473ffffffffffffffffffffffffffffffffffffffff1673ffffffffffffffffffffffffffffffffffffffff166108fc829081150290604051600060405180830381858888f193505050501580156103b6573d6000803e3d6000fd5b5050565b60006001905090565b600860009054906101000a900460ff1680156103ec5750600860019054906101000a900460ff16155b80156104045750600860049054906101000a900460ff165b61040d57600080fd5b600860029054906101000a900460ff161580156104375750600860039054906101000a900460ff16155b61044057600080fd5b600260009054906101000a900473ffffffffffffffffffffffffffffffffffffffff1673ffffffffffffffffffffffffffffffffffffffff163373ffffffffffffffffffffffffffffffffffffffff1614806104e95750600660009054906101000a900473ffffffffffffffffffffffffffffffffffffffff1673ffffffffffffffffffffffffffffffffffffffff163373ffffffffffffffffffffffffffffffffffffffff16145b6104f257600080fd5b600260009054906101000a900473ffffffffffffffffffffffffffffffffffffffff1673ffffffffffffffffffffffffffffffffffffffff163373ffffffffffffffffffffffffffffffffffffffff161415610564576001600860026101000a81548160ff0219169083151502179055505b600660009054906101000a900473ffffffffffffffffffffffffffffffffffffffff1673ffffffffffffffffffffffffffffffffffffffff163373ffffffffffffffffffffffffffffffffffffffff1614156105d6576001600860036101000a81548160ff0219169083151502179055505b6001600860016101000a81548160ff02191690831515021790555060008054906101000a900473ffffffffffffffffffffffffffffffffffffffff1673ffffffffffffffffffffffffffffffffffffffff166108fc6007549081150290604051600060405180830381858888f19350505050158015610659573d6000803e3d6000fd5b50565b60008135905061066b816107ed565b92915050565b60006020828403121561068357600080fd5b60006106918482850161065c565b91505092915050565b6106a3816107a8565b82525050565b60006020820190506106be600083018461069a565b92915050565b60006106cf826107b4565b91506106da836107b4565b9250827fffffffffffffffffffffffffffffffffffffffffffffffffffffffffffffffff0382111561070f5761070e6107be565b5b828201905092915050565b6000610725826107b4565b9150610730836107b4565b9250817fffffffffffffffffffffffffffffffffffffffffffffffffffffffffffffffff0483118215151615610769576107686107be565b5b828202905092915050565b600061077f826107b4565b915061078a836107b4565b92508282101561079d5761079c6107be565b5b828203905092915050565b60008115159050919050565b6000819050919050565b7f4e487b7100000000000000000000000000000000000000000000000000000000600052601160045260246000fd5b6107f6816107b4565b811461080157600080fd5b5056fea26469706673582212201c70fbe3829a9301253d1ae7faed707456ada1dd1f68fb74a9f64a920ab77abd64736f6c63430008040033",
  "linkReferences": {},
  "deployedLinkReferences": {}
}